S01600004C45445F6D61747269785F5553422E73726563FC
S113000004C1000028C1000026C1000024C1000072
S113001022C1000020C100001EC100001CC100005C
S11300201AC1000018C1000016C1000014C100006C
S113003012C1000010C100000EC100000CC100007C
S11300400AC1000008C1000006C1000004C100008C
S113005002C1000000C10000FEC00000FCC000009E
S1130060FAC00000F8C00000F6C00000F4C00000B0
S1130070F2C00000F0C00000EEC00000ECC00000C0
S1130080EAC00000E8C00000E6C00000E4C00000D0
S1130090E2C00000E0C00000DEC00000DCC00000E0
S11300A0DAC00000D8C00000D6C00000D4C00000F0
S11300B0D2C00000D0C00000CEC00000CCC0000000
S11300C0CAC00000C8C00000C6C00000C4C0000010
S11300D0C2C00000C0C00000BEC00000BCC0000020
S11300E0BAC00000B8C00000B6C00000B4C0000030
S11300F0B2C00000B0C00000AEC00000ACC0000040
S1130100AAC00000A8C00000A6C00000A4C000004F
S1130110A2C00000A0C000009EC000009CC000005F
S11301209AC0000098C0000096C0000094C000006F
S113013092C0000090C000008EC000008CC000007F
S11301408AC0000088C0000086C0000084C000008F
S113015082C0000080C000007EC000007CC000009F
S11301607AC0000078C0000076C0000074C00000AF
S113017072C0000070C000006EC000006CC00000BF
S11301806AC0000068C0000066C0000064C00000CF
S113019062C0000060C000005EC000005CC00000DF
S11301A05AC0000058C0000056C0000054C00000EF
S11301B052C0000050C000004EC000004CC00000FF
S11301C04AC0000048C0000046C0000044C000000F
S11301D042C0000040C000003EC000003CC000001F
S11301E03AC0000038C0000036C0000034C000002F
S11301F032C000000C94B20B0C94710CCD06D006E6
S1130200D306D606D906DC06DF0611241FBECFEFBF
S1130210CDBFDFE3DEBF00E00CBF18BE19BE1ABEBF
S11302201BBE10E2A0E0B0E2ECE1F5E200E00BBF9F
S113023002C007900D92AC3FB107D9F71BBE24E270
S1130240ACEFB0E201C01D92A03FB207E1F70E94FB
S113025008100C948C12D4CECF93DF93EC01C03CE5
S113026028E0D20729F468E083E00E948F0E07C0DB
S1130270803C994021F468E084E00E948F0E8881DC
S113028080618883DF91CF910895EF92FF920F935D
S11302901F93CF937C01C42FB901A80100E016E39A
S11302A02EE631E041D4882344F0F7019081CC0F4D
S11302B0CC0FCC70937FC92BC083CF911F910F912A
S11302C0FF90EF900895FC01DB01460F571F05C016
S11302D08D91838392819923ECF7A417B507C1F715
S11302E080E0089580E008953091DC242091DD249D
S11302F0822F90E00397C1F4311118C08091E0245B
S11303009091E1240497A1F4EAEDF4E28CEF90E2F9
S1130310808791878AE991E08487958784E090E0DB
S11303208287938781E0089580E0089580E00895AE
S113033080E0089508950F931F9306EB11E021E9DF
S113034030E040E051E260E082E00E946C0A1F91DC
S11303500F910895109296211092942181E0809338
S11303609221E9DF81110C94D50F0895811108C001
S11303706139710521F480E091E20E94DC0FDBCF4A
S113038008950C94D90F089524E731E040E050E239
S113039064E971E286E991E20C94770D0895E091A5
S11303A09C21F0919D210190F081E02D22813381E7
S11303B02E0F3F1FFC014081E40FF11DE217F307EC
S11303C0B8F481818430B9F0861309C005C08181F5
S11303D08430A1F0861303C08E2F9F2F089580814F
S11303E0E80FF11DE217F30790F380E090E0089521
S11303F080E090E0089580E090E0089580E090E04F
S113040008958091DC248F7782C7089590919E216E
S1130410992381F1E0919C21F0919D210190F0813B
S1130420E02D9481891740F5E0939A21F0939B2164
S1130430228133812E0F3F1FE217F307F8F49181D5
S1130440943061F49281981309C09381961306C085
S1130450E0939A21F0939B2181E008959081E90F24
S1130460F11DE217F30758F3E0939A21F0939B21CF
S113047080E0089580E0089580E0089580E0089584
S1130480EF92FF921F93CF93DF93C82F60E0BEDFFC
S1130490182F882381F1A0919C21B0919D21EC2FEC
S11304A0F0E0EE0FFF1F12968D919C911397E80FC9
S11304B0F91FE080F180D7011696ED91FC91179712
S11304C01995682F8C2FA2DF182F8823A1F0C091D3
S11304D09A21D0919B2165E0CE0161DFEC01892B4B
S11304E021F08A810E946F0BF6CFD7011296ED910D
S11304F0FC9113971995812FDF91CF911F91FF9054
S1130500EF9008951F93CF93DF93182F7FDF8823F5
S113051039F1C0919A21D0919B2165E0CE013FDF52
S1130520EC01892B41F04C815D816B818A81FCD681
S11305308111F3CF15C0A0919C21B0919D21E12F91
S1130540F0E0EE0FFF1F12968D919C911397E80F28
S1130550F91F0190F081E02D0190F081E02D1995B3
S1130560DF91CF911F91089580919A2190919B21C1
S113057008955BC60895CF9380919E218823C1F08E
S1130580E0919C21F0919D210190F081E02D8481E6
S1130590882371F0C0E08C2F73DFCF5FE0919C2142
S11305A0F0919D210190F081E02D8481C81798F38A
S11305B010929E2181E090E08093A2219093A32148
S11305C0CF910895CF9380919E21882349F1A091E2
S11305D09C21B0919D21ED91FC91119784818823F8
S11305E0F9F0C0E0EC2FF0E0EE0FFF1F12968D91B2
S11305F09C911397E80FF91F0190F081E02D00847E
S1130600F185E02D309709F01995CF5FA0919C21D9
S1130610B0919D21ED91FC9111978481C81710F33D
S1130620CF9108950F931F93CF93DF93EAEDF4E2F4
S1130630128613861486158616861786808188236B
S11306400CF063C22091E0243091E124211531059E
S113065009F056C251C28F7109F0A7C09091DB24F2
S1130660963079F0983009F496C091119EC02230EA
S1130670310509F0CAC162E070E082EA91E24DD628
S11306804DC28091DC249091DD24292F3327223020
S11306903105A9F024F42130310541F0ADC12330F6
S11306A03105D9F12F30310551F1A6C18091902047
S11306B090919120DC016C9170E02FD65DC0E091A7
S11306C09020F09191202189821708F09EC19927EA
S11306D0880F991F880F991FE0919220F091932021
S11306E0E80FF91F80819181FC016281738115D625
S11306F0E091E224F091E32482E081833DC0809183
S1130700942090919520009709F47FC1DC01129602
S11307106D917C91139701D62FC099278130910553
S113072091F058F08230910509F4F4C1039709F06F
S11307306CC129E08CED90E209C064E070E08CE8C3
S113074090E2EBD519C08FE790E22BE0382FA2E4BA
S1130750B0E2E82FF92F819190E08D939D938E2F35
S1130760831B8217C0F3622F660F6E5F6093402075
S113077070E080E490E2D1D5EAEDF4E286819781DD
S1130780228533858217930708F0C8C18093E42437
S11307909093E524C3C12130310509F036C161E0ED
S11307A070E08EE991E2B9D5B9C18130E1F590915B
S11307B0DB249A30C1F52130310509F026C180913E
S11307C09E21882309F421C1C091DE24D091DF2425
S11307D000919C2110919D21D801ED91FC9184817F
S11307E0C81708F012C160E08C2F10DE882309F4CA
S11307F00CC1CE019927880F991FD8011296ED914B
S1130800FC911397E80FF91F0190F081E02D868188
S11308109781FC0119958093A02161E070E080EA42
S113082091E27BD57BC1823009F0EFC08091DB245B
S11308308111E4C02230310509F0E7C08091DE2443
S1130840FBD590E0809398219093992162E070E029
S113085088E991E262D562C18F7109F083C09091F9
S1130860DB24933009F4CCC018F49130A1F07AC0A1
S1130870953019F0993039F175C08091E024909148
S1130880E124892B09F0C1C081E092E08093E62441
S11308909093E72443C18091E0249091E124892B33
S11308A009F0B3C08091DC249091DD24019709F014
S11308B0ACC08091A2219091A3218D7F8093A2212D
S11308C09093A3212BC18091E0249091E124892B62
S11308D009F09BC01FD5882309F497C02091DC241C
S11308E03091DD243327E0919020F091912081898B
S11308F090E08217930708F488C03DDE8091DC24E1
S11309009091DD2480939E21882309F407C19927BF
S11309108150904C880F991F880F991FE091922065
S1130920F0919320E80FF91FE0939C21F0939D210F
S11309300190F081E02D8481882309F4EFC0C0E0A8
S113094060E08C2FDFDD882309F45FC0CF5FE09186
S11309509C21F0919D210190F081E02D8481C817A4
S113096078F3DCC08130E1F49091DB249B30C1F456
S11309708091E0249091E124892B09F046C0809174
S11309809E21882309F441C0EAEDF4E2C481D281B6
S11309908C2F76DD8823C9F16D2F8C2FB3DD33C006
S11309A0823099F58091DB24813019F0833089F00D
S11309B029C08091E0249091E124892B31F5809124
S11309C0DC249091DD24892B01F58091DE244FD520
S11309D01AC08091E0249091E124892BB1F4809194
S11309E0DC249091DD24892B81F4CAEDD4E28C813E
S11309F02DD68C8190D607C080E005C080E003C06E
S1130A0080E001C080E081118AC08091DA248F7176
S1130A10813071F580919E21882351F10091DE246B
S1130A201091DF24C0919C21D0919D21E881F9810E
S1130A3084810817E8F460E0802FE8DC8823C1F0A3
S1130A40F801FF27CF01880F991FEA81FB81E80F86
S1130A50F91FC081D181EE81FF811995682F802F04
S1130A60D5DC882329F0EC81FD811995811157C0CB
S1130A708091DA248F71823009F040C080919E21E8
S1130A808823B1F1A0919C21B0919D21ED91FC911D
S1130A9011978481882371F1C0E0EC2FF0E0EE0F10
S1130AA0FF1F12968D919C911397E80FF91F0081F7
S1130AB01181D8011696ED91FC9117971995682F1D
S1130AC08C2FA4DC882359F1D8011496ED91FC9164
S1130AD015971995811123C0CF5FA0919C21B091E6
S1130AE09D21ED91FC9111979481C917B0F217C023
S1130AF080E015C080E013C080E011C080E00FC02A
S1130B00982F907609F081CFA6CD982F907609F092
S1130B107CCFA2CE24E18AE690E218CE81E0DF9178
S1130B20CF911F910F910895CF92DF92EF92FF9290
S1130B300F931F93CF93DF93EC016A017B01DB01D9
S1130B40CA010197A109B109BC01CD01600F711F50
S1130B50821F931FA70196010E94F81121383105C5
S1130B6041055105F8F4213460F4213260F4213157
S1130B7060F4293060F4253060F4233060F480E8B8
S1130B800BC083E009C082E007C082E805C081E0B1
S1130B9003C081E801C080E098819C77982B9883FA
S1130BA081E001C08FEFDF91CF911F910F91FF90F2
S1130BB0EF90DF90CF900895811122C090919822F8
S1130BC09923D9F09091EB24911101C0FFCF2FB755
S1130BD0F894EAEEF4E29181915091832FBF0DC015
S1130BE09091EB249F3F09F4FFCF2FB7F894EAEEDE
S1130BF0F4E291819F5F91832FBF8093982208959F
S1130C0090919822992361F3F8CF0F93E8ECF4E0E4
S1130C1080818F7D808380818F7D8083ECE6F2E20A
S1130C2002E0059310926E2210926F2200E2069366
S1130C3000E40693E4E6F2E200E2069300E406939D
S1130C40EAEDF4E214861586168617861286138654
S1130C50109255220F9108950F9385E080935522A9
S1130C60EDE6F2E204E00593E5E6F2E204E0059342
S1130C700F9108950F9383E08093552210926E2272
S1130C8010926F22ECE6F2E202E006930F910895CF
S1130C90E091E624F091E724309709F0199508953E
S1130CA00F93CF93DF9380915522833019F4F0DFB3
S1130CB0ACDF5EC08091512290915222C091E42415
S1130CC0D091E524C81BD90B71F5209153223091A2
S1130CD05422820F931F8093532290935422209185
S1130CE0E0243091E1248217930721F08091A4211C
S1130CF0882341F084E080935522E4E6F2E202E0A6
S1130D00069336C0E091E824F091E924309799F0F5
S1130D101995882381F01092512210925222C09189
S1130D20E424D091E524C830D10528F01092A42100
S1130D30C8E0D0E003C081E08093A421E8E5F2E2BA
S1130D40C68BD78B80915122909152222091E2241C
S1130D503091E324280F391F208F318FC80FD91FFA
S1130D60C0935122D0935222ECE6F2E202E00693C1
S1130D70DF91CF910F910895FC018181E82FE770F5
S1130D808E2F90E0FC013197E730F105D8F48827E5
S1130D90E250FF4F8F4F0C941A1280E190E00895B7
S1130DA080E290E0089580E490E0089580E890E087
S1130DB0089580E091E0089580E092E008958FEF37
S1130DC093E0089588E090E00895282F2F7030E094
S1130DD0220F331F082E000C990B8827990F881FA8
S1130DE09927820F931F02979C01220F331F220F12
S1130DF0331F220F331F820F931F8B5D9D4D089568
S1130E000F93CF938091CC0480FF62C081E08093E4
S1130E10CC04E4E6F2E200E80693ECE6F2E200E851
S1130E2006938093CA04E4E6F2E200E1069380911B
S1130E305522882329F08350823008F429DFE5DE27
S1130E408091662290916722089709F043C088E058
S1130E50E9E4F2E2AAEDB4E201900D928A95E1F799
S1130E60E8ECF4E08081806280838081806280830A
S1130E70D9DBC82F811103C0EFDEC1E02CC0809103
S1130E80DA2488236CF41092532210925422109284
S1130E9051221092522282E08093552201DF1BC01E
S1130EA08091E0249091E124892B11F4E3DE13C0B6
S1130EB010925322109254221092512210925222D4
S1130EC081E080935522E4E6F2E202E0069303C057
S1130ED0C0E001C0C1E08C2FCF910F9108958F9293
S1130EE09F92AF92BF92DF92EF92FF920F931F9364
S1130EF0CF93DF93D82E69DF8C01BD2CBB1CBB24A0
S1130F00BB1CCD2DCF70D0E0CC0FDD1FCB0DD11D80
S1130F10CE01880F991F880F991F880F991F9C0174
S1130F202C593D4D7901C90127DF4C01BB2009F43F
S1130F307BC0FE01EE0FFF1FEE0FFF1FEE0FFF1F22
S1130F40E85AFD4D22893389D80115968D919C91DB
S1130F501697820F931F15968D939C93169713964D
S1130F602D913C9114978217930709F447C0281BCD
S1130F70390B2115B4E03B0740F02FEF33E0C901F2
S1130F80B4010E94E411281B390BF801808181FF10
S1130F900AC0C901B4010E94E41141E0892B09F09F
S1130FA040E0842F01C080E0D8019C9180FB91F93E
S1130FB09C93FE01EE0FFF1FEE0FFF1FEE0FFF1FAE
S1130FC0E85AFD4D128A138A2687378711962D9188
S1130FD03C91129715968D919C911697820F931FB1
S1130FE0CC0FDD1FCC0FDD1FCC0FDD1FC859DD4D2D
S1130FF088839983F70102E00693E8C0D8018C91B5
S113100081FFD1C08D7F8C93CC0FDD1FCC0FDD1FF2
S1131010CC0FDD1FC85ADD4D1A8A1B8A1E861F8617
S1131020F70102E00693D2C0FE01EE0FFF1FEE0FA0
S1131030FF1FEE0FFF1FE85AFD4DA684B784D801A9
S11310408C9182FF1BC01196ED91FC91129715961D
S11310502D913C91169713968D919C911497B40100
S11310600E94E411B0E4DB9EB00111246B597E4D63
S1131070AC01CF01820F931F0E948312F8012581D6
S113108036812A0D3B1D2583368383819481821703
S1131090930768F485839683CC0FDD1FCC0FDD1F87
S11310A0CC0FDD1FC85ADD4D8A899B897CC0FE01A7
S11310B0EE0FFF1FEE0FFF1FEE0FFF1FE85AFD4D4F
S11310C0428953894A155B0509F06DC02817390711
S11310D009F469C0AC01421B530B9A01211554E079
S11310E0350758F02FEF33E0C901B4010E94E41131
S11310F0D901A81BB90BCD0108C0C901B4010E94D4
S1131100E411F901E81BF90BCF01FE01EE0FFF1FFB
S1131110EE0FFF1FEE0FFF1FE85AFD4D16861786D0
S11311208815990500F5D8018C9184608C93B0E4FE
S1131130DB9EC00111248B599E4DFE01EE0FFF1F53
S1131140EE0FFF1FEE0FFF1FE859FD4D80839183C3
S1131150CC0FDD1FCC0FDD1FCC0FDD1FC85ADD4DBA
S11311608A8A9B8A1CC0F80141815281258136817B
S1131170240F351FFE01EE0FFF1FEE0FFF1FEE0FB2
S1131180FF1FE859FD4D20833183CC0FDD1FCC0FA9
S1131190DD1FCC0FDD1FC85ADD4D8A8B9B8BF701F9
S11311A002E0069313C0D8018C9180FF0FC08E7F9C
S11311B08C931796ED91FC911897309739F015960A
S11311C06D917C9116974D2D80E01995DF91CF910B
S11311D01F910F91FF90EF90DF90BF90AF909F9081
S11311E08F900895CF93CFB7F89481E0E5DCEAECD3
S11311F0F4E080E4808380E28083E1ECF4E08081A9
S113120081608083A9ECB4E08C9182608C93E8ECDB
S1131210F4E08081806480838C9181608C938081F0
S113122080688083CFBFCF910895CF93DF93C0E6CA
S1131230D0E0188280E37FD5E0ECF4E08081806424
S1131240808381E08883CFB7F894E8E5F2E21586DD
S1131250158A158E15A215A615AAE5E2F2E280817B
S11312608E7F8083EEE2F2E280818E7F8083E7E3EB
S1131270F2E280818E7F8083E0E4F2E280818E7FDF
S113128080836AE170E082E08DD58F3F19F080930E
S1131290FA0403C08FE18093FA046BE170E082E00A
S11312A081D58F3F19F08093FB0403C08FE18093B5
S11312B0FB04E0ECF4E080818260808380818068BC
S11312C0808380818061808384E692E28683978331
S11312D08081806280838FEF8093C504E8ECF4E022
S11312E0808181608083109298228091EF248F3FC7
S11312F009F4FFCF9FB7F894EAEEF4E285818F5F9B
S113130085839FBF6FDFCFBFDF91CF910895809317
S1131310C30408958091C3040895EAEDF4E280873C
S11313209187628773870895282F2F7030E0220FEA
S1131330331F082E000C990B8827990F881F9927B3
S1131340820F931FFC01EE0FFF1FEE0FFF1FEE0F26
S1131350FF1FE85AFD4D2585207C09F069C06370A4
S1131360613011F018F404C020EC03C020E801C07F
S113137020E440385105E9F050F440325105A9F019
S113138040345105A1F040315105D9F40CC0411548
S113139032E0530791F04F3F33E0530781F041159A
S11313A0514079F408C041E00DC042E00BC043E075
S11313B009C044E007C045E005C046E003C047E07B
S11313C001C040E0FC01EE0FFF1FEE0FFF1FEE0F08
S11313D0FF1FE85AFD4D158636E03487242B2587F8
S11313E0FC01EE0FFF1FEE0FFF1FEE0FFF1FE85A69
S11313F0FD4D2585207C203C69F4FC01EE0FFF1F88
S1131400EE0FFF1FEE0FFF1FE85AFD4D25852770D5
S1131410273081F0880F991F880F991F880F991F13
S1131420FC01E85AFD4D85858062858781E0089539
S113143080E0089581E00895E82FEF70F0E0EE0F6A
S1131440FF1F082E000C990B8827990F881F9927D6
S1131450E80FF91FEE0FFF1FEE0FFF1FEE0FFF1F28
S1131460E85AFD4D858582FB882780F90895282F49
S11314702F7030E0A901440F551F282F082E000CAF
S1131480330B2227330F221F3327240F351FF90173
S1131490EE0FFF1FEE0FFF1FEE0FFF1FE85AFD4D6B
S11314A0958592FF17C0220F331F220F331F220F7F
S11314B0331FF901E85AFD4D95859B7F958785DC9F
S11314C0FC01808180FF06C08E7F80830780F085C9
S11314D0E02D199581E008957F928F929F92AF92AB
S11314E0BF92CF92DF92EF92FF920F931F93CF930D
S11314F0DF93982E862E6A01790167DC5C01792CD2
S1131500771C7724771CC92DCF70D0E0CC0FDD1F5A
S1131510C70DD11DFE01EE0FFF1FEE0FFF1FEE0FD3
S1131520FF1FE85AFD4D8585807C09F47DC0FE01CE
S1131530EE0FFF1FEE0FFF1FEE0FFF1FE85AFD4DCA
S11315408585807C803C61F0FE01EE0FFF1FEE0F6D
S1131550FF1FEE0FFF1FE85AFD4D858582FD66C013
S11315608FB7F894F501908190FF03C08FBF712C61
S11315705EC0F5019081916090838FBFC182D28259
S1131580E382F4821582168207831087811006C0D5
S113159091E0E114F10419F090E001C091E0F5014B
S11315A0808190FB81F98B7F8083772059F0CC0F69
S11315B0DD1FCC0FDD1FCC0FDD1FC85ADD4D1A8A8D
S11315C01B8A2DC0FE01EE0FFF1FEE0FFF1FEE0F53
S11315D0FF1FE85AFD4D8585807C803CA1F4CE0137
S11315E0880F991F880F991F880F991F8C599D4D3B
S11315F0C3DBBC01C701E8D6892B29F0F501808142
S11316008E7F808314C0CC0FDD1FCC0FDD1FCC0F69
S1131610DD1FC85ADD4D1E861F861A8A1B8A892D36
S11316205EDC7724739403C0712C01C0712C872D68
S1131630DF91CF911F910F91FF90EF90DF90CF90AA
S1131640BF90AF909F908F907F900895FF920F93DB
S11316501F93CF93DF93182FF82EFF1CFF24FF1C3A
S1131660C82FCF70D0E0CC0FDD1FCF0DD11DADDB67
S1131670DC01FE01EE0FFF1FEE0FFF1FEE0FFF1F39
S1131680EC59FD4D02E005938C9180FF22C08E7FC2
S11316908C931796ED91FC9118973097D1F0FF2019
S11316A059F0CC0FDD1FCC0FDD1FCC0FDD1FC85A46
S11316B0DD4D6A897B890AC0CC0FDD1FCC0FDD1F8D
S11316C0CC0FDD1FC85ADD4D6E857F85412F81E02B
S11316D01995DF91CF911F910F91FF900895CF93AA
S11316E0C82FB4DFEC2FEF70F0E0EE0FFF1F8C2F4C
S11316F0CC0F990B8827990F881F9927E80FF91F9A
S1131700EE0FFF1FEE0FFF1FEE0FFF1FE85AFD4DF8
S11317101586CF9108950F93E82FEF70F0E0EE0F48
S1131720FF1F282F082E000C330B2227330F221FF4
S11317303327E20FF31FEE0FFF1FEE0FFF1FEE0F15
S1131740FF1FDF01A85ABD4D1D969C911D97946003
S11317501D969C93EC59FD4D01E0069377DF81E0E3
S11317600F9108951F920F920FB60F92112408B68D
S11317700F9218BE09B60F9219BE0BB60F921BBE7C
S11317800F932F933F934F935F936F937F938F9315
S11317909F93AF93BF93EF93FF938091CB048823E0
S11317A034F480E88093CA040E94E20282C08091EB
S11317B0CB0482FF20C084E08093CA0480916C2211
S11317C086FF77C08091CC0481FD73C019DB811141
S11317D070C080915522813011F44CDA6AC0843093
S11317E009F067C0EDE6F2E204E00593E5E6F2E213
S11317F004E005935EC08091CB0481FF55C082E074
S11318008093CA048091642286FF53C08091CC04E3
S113181081FD4FC0F5DA81114CC080915522823090
S113182041F484E080935522E4E6F2E202E0069378
S113183040C0833009F03DC0EDE6F2E204E00593D8
S1131840E5E6F2E204E0059334C080E18093CA0443
S113185081E0FCDE81E8FADE0E94BB021092C30440
S1131860E8E5F2E2158696E0948780E48587158A98
S1131870948B858B89E492E2808B918BC6D919C0B5
S11318808091CB0486FF06C080E48093CA0480E084
S113189093D90FC08091CB0485FF0BC080E2809365
S11318A0CA0481E089D905C08091CB0484FFE8CFC4
S11318B0CCCFFF91EF91BF91AF919F918F917F9189
S11318C06F915F914F913F912F910F910F900BBEAC
S11318D00F9009BE0F9008BE0F900FBE0F901F907F
S11318E018951F920F920FB60F92112408B60F92FB
S11318F018BE09B60F9219BE0AB60F921ABE0BB6DD
S11319000F921BBE0F931F932F933F934F935F939D
S11319106F937F938F939F93AF93BF93CF93DF93F3
S1131920EF93FF938091CC0481FD03C069DA8111A8
S1131930C1C082E08093CC048091C5048195880F56
S1131940E4E6F2E2E81BF1092081318124563242B7
S1131950369527953695279536952795822F869522
S113196020FD02C090E001C090E8890FE82FEF70DD
S1131970F0E0EE0FFF1F282F082E000C330B222758
S1131980330F221F3327E20FF31FDF01AA0FBB1F00
S1131990AA0FBB1FAA0FBB1FA85ABD4D1C969C9132
S11319A095FF88C0EE0FFF1FEE0FFF1FEE0FFF1F06
S11319B0EC59FD4D00E20693811177C080915522C8
S11319C0843019F465D921D975C00091662210912B
S11319D067228091E4249091E524C0915122D09112
S11319E052229E01200F311F8217930718F48C0195
S11319F00C1B1D0B8091E2249091E324A80169E45F
S1131A0072E28C0F9D1F7FD5C00FD11FC09351224E
S1131A10D09352220830110569F480915322909199
S1131A2054228C0F9D1F2091E0243091E1248217D1
S1131A30930780F0EAEDF4E2C287D3870684F78542
S1131A40E02D309729F01995811102C005D932C0D3
S1131A5011D930C08091E4249091E524C817D907A6
S1131A60F9F4E091E824F091E924309711F4F4D8E2
S1131A7021C01995811102C0EFD81CC020915322B6
S1131A80309154228091512290915222820F931FBF
S1131A9080935322909354221092512210925222F6
S1131AA0E4E6F2E202E0069305C0803811F4F8D8C7
S1131AB001C015DAFF91EF91DF91CF91BF91AF9102
S1131AC09F918F917F916F915F914F913F912F9152
S1131AD01F910F910F900BBE0F900ABE0F9009BE7D
S1131AE00F9008BE0F900FBE0F901F901895CF93C4
S1131AF0DF93DC01EA019091DA2499230CF063C0AE
S1131B00907609F040C08091DB248630E1F50E9494
S1131B10B402DC011A962C911A97213209F072C092
S1131B202091DD242132B1F49C01275F3F4F2093A3
S1131B30E2243093E324EAEDF4E219968C912681B1
S1131B40378190E02817390708F4C9018287938701
S1131B5081E065C0FC013785231356C0C093E2249D
S1131B60D093E324EAEDF4E2DC0150962D913C910C
S1131B705197868197812817390708F4C90182870C
S1131B80938781E04CC0903209F040C08091DB24FF
S1131B90823039F0833071F08130D1F5F901199533
S1131BA03EC0EAEDF4E2A087B18781E090E082874D
S1131BB0938735C0EAEDF4E26087718781E090E0B5
S1131BC0828793872CC09076903221F58091DB2414
S1131BD08A3039F08B3051F08930F1F4F9011995DC
S1131BE01EC08091DD248C9381E019C08091E02493
S1131BF09091E124892B91F48091DC24DB018C9376
S1131C0081E00DC080E00BC080E009C080E007C027
S1131C1080E005C080E003C080E001C080E0DF9187
S1131C20CF910895CF93DF9300D01F92CDB7DEB745
S1131C308FEF809370008093710080937200809383
S1131C4073008093740080937500809376006CE138
S1131C5070E082E0A7D08A836DE170E082E0A2D0D8
S1131C60898389819A81019621F480E493E28983AE
S1131C709A8389819A818B839C83E0E6F0E0828356
S1131C808C8183838091510084FD37C08091510001
S1131C9081FD26C09FB7F894E0E5F0E08081826082
S1131CA080839FBF818181FFFDCF9FB7F894A0E51A
S1131CB0B0E016968C911697897F16968C9316979A
S1131CC0E0E6F0E080E885838BEB868316968C91C2
S1131CD01697846016968C938081816080839FBF61
S1131CE09FB7F894E0E5F0E082E885838081806125
S1131CF080839FBF818184FFFDCF64E080E490E016
S1131D005BD09FB7F894E0E5F0E080818E7F80831C
S1131D109FBF2496CDBFDEBFDF91CF9108959FB7BB
S1131D20F894E82FF0E0E059FF4F60958081682334
S1131D3060839FBF0895863011F060E001C068E1C0
S1131D408091510081FD26C09FB7F894E0E5F0E052
S1131D508081826080839FBF818181FFFDCF9FB797
S1131D60F894A0E5B0E016968C911697897F1696A4
S1131D708C931697E0E6F0E080E885838BEB86830E
S1131D8016968C911697846016968C938081816048
S1131D9080839FBF636084E490E00ED060E480E0C1
S1131DA0BECF08954091CA01E62FF72F8093CA0150
S1131DB084914093CA0108951BBEFC0128ED24BF01
S1131DC0608308950895EF92FF920F93CF93FC01DF
S1131DD081E090E002C0880F991F0A95E2F7C82FAE
S1131DE0382F3095A22FAA0FBB0BCD01880F991F56
S1131DF0880F991F880F991FA80FB91FCD01860F4F
S1131E00911D67FD9A95BC01942F442314F497E027
S1131E10940F959595959595492F990F550BCA0152
S1131E20880F991F880F991F880F991F480F591FF2
S1131E30460F571FE40FF51FDF0180E090E0F12CFF
S1131E408E159F0524F420812C2B208303C02C9114
S1131E5023232C930196339613968330910581F7AF
S1131E60CF910F91FF90EF9008953F924F925F9220
S1131E706F927F928F929F92AF92BF92CF92DF9296
S1131E80EF92FF920F931F93CF93DF930F2EF6EEF3
S1131E908F2EF0E29F2EF02DC0E0D0E0880F990B3A
S1131EA02C01440C551C440C551C440C551C480E68
S1131EB0591E0F2EF0E66F2EF6E07F2EF02D332400
S1131EC0339409C00197A109B109E1F72196C33000
S1131ED0D10509F458C08E01000F111F0C0F1D1FEE
S1131EE0040D151DC80109966091DA207091DB205C
S1131EF0680F791F43E050E080EC98E00E94630192
S1131F006091DA207091DB20600F711F43E050E094
S1131F1080EC98E00E946301F30135823682F4017B
S1131F2080813181F2E08F0E911C282F932F990F1D
S1131F30990BA12C0F2EF6E3BF2EF02D0F2EFEE6EB
S1131F40CF2EF02DD32CE12CF12C00E010E0492F02
S1131F50592F692F792F892F76D2215C3D4B404F21
S1131F605F4F6F4F7F4F8F4F9F4F8FD120E03BE1EB
S1131F7047EB5AE4E8D054D1F22FE32F8F2F9E2F52
S1131F80A42FB52F9FCFDF91CF911F910F91FF9079
S1131F90EF90DF90CF90BF90AF909F908F907F9005
S1131FA06F905F904F903F90089581E08093D92483
S1131FB008951092D9240895FC01208121110BC0A9
S1131FC0A091D820B091D920319680E901900D924A
S1131FD08A95E1F708952130D1F42091D8203091E9
S1131FE0D920D901A057BF4FFC01319680E9019057
S1131FF00D928A95E1F78091DA209091DB2020936D
S1132000DA203093DB208093D8209093D920089550
S1132010CF93DF931F92CDB7DEB704DE87E08093C2
S1132020A20078940E94B902CDDE80E1809301067B
S1132030E0E6F6E092E0918394E09183A0E4B6E0D8
S113204090E811969C93119790E211969C931197A6
S113205011968C9381E0818380EC98E00E942C019E
S1132060C12CD12C760100E412E42FE030E040E0F2
S1132070BE016F5F7F4F80EC98E00E944501E0EC69
S1132080F8E0808180648083C090DA20D090DB20E7
S113209010E024C0EF2DE7781CF4E150E86FEF5F07
S11320A00E2E000CFF0BE451FF4DA080E12C0A2DF5
S11320B02B2D4F2D61E0C60186DE2B2D4F2D62E0C6
S11320C0C60181DE2B2D4F2D60E0C6017CDEF3942A
S11320D080E1F812DFCF1F5F1031B9F0E12FE7780C
S11320E01CF4E150E86FEF5F0E2E000CFF0B812F04
S11320F0112314F487E0810F982F987FF12CEC5072
S1132100FF4D8081B92EB80EC5CF0F2EF0E6EF2E0D
S1132110F6E0FF2EF02D6894CC24C2F86894DD24F8
S1132120D1F8F701C682D582D682C58280E09DDED1
S113213011E00D2DF70105830683812F96DE1F5FC5
S11321401031C1F7EECF0CD005C1FDD040F0F4D072
S113215030F021F45F3F19F0D6C051112FC1D9C01E
S11321600AD198F39923C9F35523B1F3951B550B61
S1132170BB27AA2762177307840738F09F5F5F4F56
S1132180220F331F441FAA1FA9F333D00E2E3AF097
S1132190E0E830D091505040E695001CCAF729D0B1
S11321A0FE2F27D0660F771F881FBB1F2617370700
S11321B04807AB07B0E809F0BB0B802DBF01FF2730
S11321C093585F4F2AF09E3F510568F09CC0F6C0BB
S11321D05F3FECF3983EDCF3869577956795B7956A
S11321E0F7959F5FC9F7880F911D9695879597F985
S11321F00895E1E0660F771F881FBB1F62177307FE
S11322008407BA0720F0621B730B840BBA0BEE1F12
S113221088F7E0950895BEE304D008F490E80895A3
S1132220BFE322273327A901AED058F19F5740F1CD
S1132230B91738F1BFE3B91B9927B8503AF4660FC0
S1132240771F881F991FB395D2F316C0B8504AF070
S1132250232F342F452F562F672F782F8827B850D8
S1132260BAF7B85F49F0869577956795579547957E
S113227037952795BA95B9F70EF44ED088940895FA
S1132280889460E070E0CB010895E894F92F96EB10
S1132290FF2381F0121613061406440B9395F6954A
S11322A087957795679557954040FF23B9F71BC0ED
S11322B099270895882351F49850D2F7872B762FC5
S11322C0652F542F432F322F20E0B1F3121613063B
S11322D01406440B88233AF09A95440F551F661F41
S11322E0771F881FCAF755234AF4440F551F11F46A
S11322F060FF04C06F5F7F4F8F4F9F4F880F96958D
S1132300879597F9089597F99F6780E870E060E0F2
S113231008959FEF80EC0895909580957095609551
S113232050954095309521953F4F4F4F5F4F6F4FDC
S11323307F4F8F4F9F4F089500240A941616170657
S113234018060906089500240A94121613061406A2
S113235005060895092E0394000C11F4882352F005
S1132360BB0F40F4BF2B11F460FF04C06F5F7F4FBD
S11323708F4F9F4F089557FD9058440F551F59F0A4
S11323805F3F71F04795880F97FB991F61F09F3F5E
S113239079F087950895121613061406551FF2CF87
S11323A04695F1DF08C0161617061806991FF1CFD7
S11323B086957105610508940895E894BB276627FE
S11323C07727CB0197F90895AA1BBB1B51E107C0DE
S11323D0AA1FBB1FA617B70710F0A61BB70B881FB1
S11323E0991F5A95A9F780959095BC01CD01089540
S11323F0A1E21A2EAA1BBB1BFD010DC0AA1FBB1F05
S1132400EE1FFF1FA217B307E407F50720F0A21B76
S1132410B30BE40BF50B661F771F881F991F1A94E3
S113242069F760957095809590959B01AC01BD010D
S1132430CF010895EE0FFF1F881F8BBF0790F69101
S1132440E02D1BBE1994DF93CF931F930F939A9D96
S1132450F02D219FF00D8B9DF00D8A9DE02DF10D47
S1132460039FF00D029FE00DF11D4E9DE00DF11D47
S11324705E9DF00D4F9DF00D7F936F93BF92AF92D1
S11324805F934F93D50130D08B01AC01D7012CD091
S1132490EB01E80FF91FD6011FD02F913F91D60110
S11324A023D0C60FD71FE81FF91FAF91BF9114D0D7
S11324B02F913F9119D0C60FD71FE81FF91FD601DE
S11324C013D0E60FF71F9801BE01CF0111240F911D
S11324D01F91CF91DF91089507D0460F571FC81F52
S11324E0D91F08F431960895A29FB001B39FC0018B
S11324F0A39F700D811D1124911DB29F700D811D2C
S11325001124911D0895FB01DC0102C001900D927C
S10F251041505040D8F70895F894FFCFD4
S113251C06FFFF0901A10109020903150026FF00AA
S113252C75089540810209040905150026FF0075FC
S113253C089591910209060907150026FF007508F4
S113254C9504B102C0AA01C101C4017201000000CA
S113255C0003000000000000000000000000000068
S113256C000000000000000000000000000000005B
S113257C000000000000000000004C4544204D61A8
S113258C74726978203136783136205247420041D2
S113259C6C6578204861796E657300000403090446
S11325ACC620962000009C209A2035200902290080
S11325BC010100C0320904000002030000000921DB
S11325CC11010001223500070581034000040705B1
S11325DC020340000400120100020000000834A1B0
S11325EC01000001010203019922B92370726F7476
S11325FC6F747970650001003C00FA00000102035D
S10F260C0706050407060504020300018C
S9030000FC
